{
  "_format": "hh-sol-artifact-1",
  "contractName": "EthEarn",
  "sourceName": "contracts/EthEarn.sol",
  "abi": [
    {
      "anonymous": false,
      "inputs": [
        {
          "indexed": true,
          "internalType": "address",
          "name": "owner",
          "type": "address"
        },
        {
          "indexed": true,
          "internalType": "address",
          "name": "spender",
          "type": "address"
        },
        {
          "indexed": false,
          "internalType": "uint256",
          "name": "value",
          "type": "uint256"
        }
      ],
      "name": "Approval",
      "type": "event"
    },
    {
      "anonymous": false,
      "inputs": [
        {
          "indexed": false,
          "internalType": "address",
          "name": "asset",
          "type": "address"
        },
        {
          "indexed": false,
          "internalType": "uint256",
          "name": "amount",
          "type": "uint256"
        }
      ],
      "name": "Deposit",
      "type": "event"
    },
    {
      "anonymous": false,
      "inputs": [
        {
          "indexed": false,
          "internalType": "address",
          "name": "user",
          "type": "address"
        },
        {
          "indexed": false,
          "internalType": "uint256",
          "name": "loopCount",
          "type": "uint256"
        }
      ],
      "name": "Looped",
      "type": "event"
    },
    {
      "anonymous": false,
      "inputs": [
        {
          "indexed": false,
          "internalType": "address",
          "name": "user",
          "type": "address"
        },
        {
          "indexed": false,
          "internalType": "uint256",
          "name": "id",
          "type": "uint256"
        }
      ],
      "name": "NftSold",
      "type": "event"
    },
    {
      "anonymous": false,
      "inputs": [
        {
          "indexed": false,
          "internalType": "uint256",
          "name": "id",
          "type": "uint256"
        },
        {
          "indexed": false,
          "internalType": "address",
          "name": "creator",
          "type": "address"
        },
        {
          "indexed": false,
          "internalType": "address",
          "name": "creatorAsset",
          "type": "address"
        },
        {
          "indexed": false,
          "internalType": "uint256",
          "name": "creatorAmount",
          "type": "uint256"
        },
        {
          "indexed": false,
          "internalType": "address",
          "name": "askingAsset",
          "type": "address"
        },
        {
          "indexed": false,
          "internalType": "uint256",
          "name": "askingAmount",
          "type": "uint256"
        },
        {
          "indexed": false,
          "internalType": "uint256",
          "name": "blockNum",
          "type": "uint256"
        },
        {
          "indexed": false,
          "internalType": "bool",
          "name": "swap",
          "type": "bool"
        }
      ],
      "name": "OrderCreation",
      "type": "event"
    },
    {
      "anonymous": false,
      "inputs": [
        {
          "indexed": false,
          "internalType": "uint256",
          "name": "orderId",
          "type": "uint256"
        },
        {
          "indexed": false,
          "internalType": "address",
          "name": "creatorAsset",
          "type": "address"
        },
        {
          "indexed": false,
          "internalType": "uint256",
          "name": "creatorAmount",
          "type": "uint256"
        },
        {
          "indexed": false,
          "internalType": "address",
          "name": "askingAsset",
          "type": "address"
        },
        {
          "indexed": false,
          "internalType": "uint256",
          "name": "askingAmount",
          "type": "uint256"
        }
      ],
      "name": "OrderLiquidityUpdate",
      "type": "event"
    },
    {
      "anonymous": false,
      "inputs": [
        {
          "indexed": false,
          "internalType": "address",
          "name": "account",
          "type": "address"
        }
      ],
      "name": "Paused",
      "type": "event"
    },
    {
      "anonymous": false,
      "inputs": [
        {
          "indexed": true,
          "internalType": "bytes32",
          "name": "role",
          "type": "bytes32"
        },
        {
          "indexed": true,
          "internalType": "bytes32",
          "name": "previousAdminRole",
          "type": "bytes32"
        },
        {
          "indexed": true,
          "internalType": "bytes32",
          "name": "newAdminRole",
          "type": "bytes32"
        }
      ],
      "name": "RoleAdminChanged",
      "type": "event"
    },
    {
      "anonymous": false,
      "inputs": [
        {
          "indexed": true,
          "internalType": "bytes32",
          "name": "role",
          "type": "bytes32"
        },
        {
          "indexed": true,
          "internalType": "address",
          "name": "account",
          "type": "address"
        },
        {
          "indexed": true,
          "internalType": "address",
          "name": "sender",
          "type": "address"
        }
      ],
      "name": "RoleGranted",
      "type": "event"
    },
    {
      "anonymous": false,
      "inputs": [
        {
          "indexed": true,
          "internalType": "bytes32",
          "name": "role",
          "type": "bytes32"
        },
        {
          "indexed": true,
          "internalType": "address",
          "name": "account",
          "type": "address"
        },
        {
          "indexed": true,
          "internalType": "address",
          "name": "sender",
          "type": "address"
        }
      ],
      "name": "RoleRevoked",
      "type": "event"
    },
    {
      "anonymous": false,
      "inputs": [
        {
          "indexed": false,
          "internalType": "address",
          "name": "user",
          "type": "address"
        },
        {
          "indexed": false,
          "internalType": "address",
          "name": "asset",
          "type": "address"
        },
        {
          "indexed": false,
          "internalType": "uint256",
          "name": "amount",
          "type": "uint256"
        }
      ],
      "name": "Trade",
      "type": "event"
    },
    {
      "anonymous": false,
      "inputs": [
        {
          "indexed": true,
          "internalType": "address",
          "name": "from",
          "type": "address"
        },
        {
          "indexed": true,
          "internalType": "address",
          "name": "to",
          "type": "address"
        },
        {
          "indexed": false,
          "internalType": "uint256",
          "name": "value",
          "type": "uint256"
        }
      ],
      "name": "Transfer",
      "type": "event"
    },
    {
      "anonymous": false,
      "inputs": [
        {
          "indexed": false,
          "internalType": "address",
          "name": "account",
          "type": "address"
        }
      ],
      "name": "Unpaused",
      "type": "event"
    },
    {
      "anonymous": false,
      "inputs": [
        {
          "indexed": false,
          "internalType": "address",
          "name": "asset",
          "type": "address"
        },
        {
          "indexed": false,
          "internalType": "uint256",
          "name": "amount",
          "type": "uint256"
        }
      ],
      "name": "Withdraw",
      "type": "event"
    },
    {
      "inputs": [],
      "name": "DEFAULT_ADMIN_ROLE",
      "outputs": [
        {
          "internalType": "bytes32",
          "name": "",
          "type": "bytes32"
        }
      ],
      "stateMutability": "view",
      "type": "function"
    },
    {
      "inputs": [
        {
          "internalType": "address",
          "name": "vaultAddress",
          "type": "address"
        }
      ],
      "name": "addNFTVault",
      "outputs": [],
      "stateMutability": "nonpayable",
      "type": "function"
    },
    {
      "inputs": [
        {
          "internalType": "address",
          "name": "owner",
          "type": "address"
        },
        {
          "internalType": "address",
          "name": "spender",
          "type": "address"
        }
      ],
      "name": "allowance",
      "outputs": [
        {
          "internalType": "uint256",
          "name": "",
          "type": "uint256"
        }
      ],
      "stateMutability": "view",
      "type": "function"
    },
    {
      "inputs": [
        {
          "internalType": "address",
          "name": "spender",
          "type": "address"
        },
        {
          "internalType": "uint256",
          "name": "amount",
          "type": "uint256"
        }
      ],
      "name": "approve",
      "outputs": [
        {
          "internalType": "bool",
          "name": "",
          "type": "bool"
        }
      ],
      "stateMutability": "nonpayable",
      "type": "function"
    },
    {
      "inputs": [],
      "name": "assetCount",
      "outputs": [
        {
          "internalType": "uint256",
          "name": "",
          "type": "uint256"
        }
      ],
      "stateMutability": "view",
      "type": "function"
    },
    {
      "inputs": [
        {
          "internalType": "address",
          "name": "",
          "type": "address"
        }
      ],
      "name": "authorized",
      "outputs": [
        {
          "internalType": "bool",
          "name": "",
          "type": "bool"
        }
      ],
      "stateMutability": "view",
      "type": "function"
    },
    {
      "inputs": [
        {
          "internalType": "uint256",
          "name": "",
          "type": "uint256"
        }
      ],
      "name": "authorizedAssets",
      "outputs": [
        {
          "internalType": "uint256",
          "name": "id",
          "type": "uint256"
        },
        {
          "internalType": "address",
          "name": "assetAddress",
          "type": "address"
        }
      ],
      "stateMutability": "view",
      "type": "function"
    },
    {
      "inputs": [
        {
          "internalType": "address",
          "name": "asset",
          "type": "address"
        },
        {
          "internalType": "address",
          "name": "user",
          "type": "address"
        }
      ],
      "name": "availableBalance",
      "outputs": [
        {
          "internalType": "uint256",
          "name": "",
          "type": "uint256"
        }
      ],
      "stateMutability": "view",
      "type": "function"
    },
    {
      "inputs": [
        {
          "internalType": "address",
          "name": "account",
          "type": "address"
        }
      ],
      "name": "balanceOf",
      "outputs": [
        {
          "internalType": "uint256",
          "name": "",
          "type": "uint256"
        }
      ],
      "stateMutability": "view",
      "type": "function"
    },
    {
      "inputs": [
        {
          "internalType": "uint256",
          "name": "vaultId",
          "type": "uint256"
        },
        {
          "internalType": "address",
          "name": "to",
          "type": "address"
        }
      ],
      "name": "buyVaultNft",
      "outputs": [],
      "stateMutability": "payable",
      "type": "function"
    },
    {
      "inputs": [
        {
          "internalType": "address",
          "name": "creatorAsset",
          "type": "address"
        },
        {
          "internalType": "uint256",
          "name": "creatorAmount",
          "type": "uint256"
        },
        {
          "internalType": "address",
          "name": "askingAsset",
          "type": "address"
        },
        {
          "internalType": "uint256",
          "name": "askingAmount",
          "type": "uint256"
        },
        {
          "internalType": "bool",
          "name": "swap",
          "type": "bool"
        }
      ],
      "name": "createLoopOrder",
      "outputs": [
        {
          "internalType": "uint256",
          "name": "orderId",
          "type": "uint256"
        }
      ],
      "stateMutability": "payable",
      "type": "function"
    },
    {
      "inputs": [],
      "name": "decimals",
      "outputs": [
        {
          "internalType": "uint8",
          "name": "",
          "type": "uint8"
        }
      ],
      "stateMutability": "view",
      "type": "function"
    },
    {
      "inputs": [
        {
          "internalType": "address",
          "name": "spender",
          "type": "address"
        },
        {
          "internalType": "uint256",
          "name": "subtractedValue",
          "type": "uint256"
        }
      ],
      "name": "decreaseAllowance",
      "outputs": [
        {
          "internalType": "bool",
          "name": "",
          "type": "bool"
        }
      ],
      "stateMutability": "nonpayable",
      "type": "function"
    },
    {
      "inputs": [
        {
          "internalType": "address",
          "name": "creatorAsset",
          "type": "address"
        },
        {
          "internalType": "uint256",
          "name": "creatorAmount",
          "type": "uint256"
        }
      ],
      "name": "deposit",
      "outputs": [],
      "stateMutability": "payable",
      "type": "function"
    },
    {
      "inputs": [
        {
          "internalType": "uint256",
          "name": "amount",
          "type": "uint256"
        },
        {
          "internalType": "address",
          "name": "user",
          "type": "address"
        }
      ],
      "name": "getLoopFees",
      "outputs": [
        {
          "internalType": "uint256",
          "name": "",
          "type": "uint256"
        }
      ],
      "stateMutability": "view",
      "type": "function"
    },
    {
      "inputs": [
        {
          "internalType": "bytes32",
          "name": "role",
          "type": "bytes32"
        }
      ],
      "name": "getRoleAdmin",
      "outputs": [
        {
          "internalType": "bytes32",
          "name": "",
          "type": "bytes32"
        }
      ],
      "stateMutability": "view",
      "type": "function"
    },
    {
      "inputs": [
        {
          "internalType": "bytes32",
          "name": "role",
          "type": "bytes32"
        },
        {
          "internalType": "address",
          "name": "account",
          "type": "address"
        }
      ],
      "name": "grantRole",
      "outputs": [],
      "stateMutability": "nonpayable",
      "type": "function"
    },
    {
      "inputs": [
        {
          "internalType": "bytes32",
          "name": "role",
          "type": "bytes32"
        },
        {
          "internalType": "address",
          "name": "account",
          "type": "address"
        }
      ],
      "name": "hasRole",
      "outputs": [
        {
          "internalType": "bool",
          "name": "",
          "type": "bool"
        }
      ],
      "stateMutability": "view",
      "type": "function"
    },
    {
      "inputs": [
        {
          "internalType": "address",
          "name": "spender",
          "type": "address"
        },
        {
          "internalType": "uint256",
          "name": "addedValue",
          "type": "uint256"
        }
      ],
      "name": "increaseAllowance",
      "outputs": [
        {
          "internalType": "bool",
          "name": "",
          "type": "bool"
        }
      ],
      "stateMutability": "nonpayable",
      "type": "function"
    },
    {
      "inputs": [
        {
          "internalType": "string",
          "name": "_name",
          "type": "string"
        },
        {
          "internalType": "string",
          "name": "_symbol",
          "type": "string"
        },
        {
          "internalType": "uint256",
          "name": "_fees",
          "type": "uint256"
        },
        {
          "internalType": "address",
          "name": "_admin",
          "type": "address"
        }
      ],
      "name": "initialize",
      "outputs": [],
      "stateMutability": "nonpayable",
      "type": "function"
    },
    {
      "inputs": [
        {
          "internalType": "uint256[]",
          "name": "fillIds",
          "type": "uint256[]"
        },
        {
          "internalType": "uint256[]",
          "name": "fillAmounts",
          "type": "uint256[]"
        },
        {
          "internalType": "uint256",
          "name": "numOfOrders",
          "type": "uint256"
        },
        {
          "internalType": "bool",
          "name": "skipable",
          "type": "bool"
        },
        {
          "internalType": "uint256",
          "name": "NFTvaultId",
          "type": "uint256"
        },
        {
          "internalType": "uint256",
          "name": "compLoanAmount",
          "type": "uint256"
        },
        {
          "internalType": "address",
          "name": "compLoanAsset",
          "type": "address"
        }
      ],
      "name": "loop",
      "outputs": [],
      "stateMutability": "nonpayable",
      "type": "function"
    },
    {
      "inputs": [
        {
          "internalType": "address",
          "name": "",
          "type": "address"
        },
        {
          "internalType": "address",
          "name": "",
          "type": "address"
        }
      ],
      "name": "loopBalance",
      "outputs": [
        {
          "internalType": "uint256",
          "name": "",
          "type": "uint256"
        }
      ],
      "stateMutability": "view",
      "type": "function"
    },
    {
      "inputs": [
        {
          "internalType": "address",
          "name": "",
          "type": "address"
        }
      ],
      "name": "loopCumulatedFees",
      "outputs": [
        {
          "internalType": "uint256",
          "name": "",
          "type": "uint256"
        }
      ],
      "stateMutability": "view",
      "type": "function"
    },
    {
      "inputs": [],
      "name": "loopFees",
      "outputs": [
        {
          "internalType": "uint256",
          "name": "",
          "type": "uint256"
        }
      ],
      "stateMutability": "view",
      "type": "function"
    },
    {
      "inputs": [],
      "name": "loopLoanFees",
      "outputs": [
        {
          "internalType": "uint256",
          "name": "",
          "type": "uint256"
        }
      ],
      "stateMutability": "view",
      "type": "function"
    },
    {
      "inputs": [
        {
          "internalType": "address",
          "name": "",
          "type": "address"
        }
      ],
      "name": "loopNftOwners",
      "outputs": [
        {
          "internalType": "bool",
          "name": "",
          "type": "bool"
        }
      ],
      "stateMutability": "view",
      "type": "function"
    },
    {
      "inputs": [
        {
          "internalType": "address",
          "name": "",
          "type": "address"
        },
        {
          "internalType": "address",
          "name": "",
          "type": "address"
        }
      ],
      "name": "loopOrderBalance",
      "outputs": [
        {
          "internalType": "uint256",
          "name": "",
          "type": "uint256"
        }
      ],
      "stateMutability": "view",
      "type": "function"
    },
    {
      "inputs": [],
      "name": "name",
      "outputs": [
        {
          "internalType": "string",
          "name": "",
          "type": "string"
        }
      ],
      "stateMutability": "view",
      "type": "function"
    },
    {
      "inputs": [
        {
          "internalType": "uint256",
          "name": "",
          "type": "uint256"
        }
      ],
      "name": "nftVaults",
      "outputs": [
        {
          "internalType": "uint256",
          "name": "id",
          "type": "uint256"
        },
        {
          "internalType": "address",
          "name": "vaultAddress",
          "type": "address"
        },
        {
          "internalType": "bool",
          "name": "active",
          "type": "bool"
        }
      ],
      "stateMutability": "view",
      "type": "function"
    },
    {
      "inputs": [],
      "name": "orderCount",
      "outputs": [
        {
          "internalType": "uint256",
          "name": "",
          "type": "uint256"
        }
      ],
      "stateMutability": "view",
      "type": "function"
    },
    {
      "inputs": [
        {
          "internalType": "uint256",
          "name": "",
          "type": "uint256"
        }
      ],
      "name": "orders",
      "outputs": [
        {
          "internalType": "uint256",
          "name": "id",
          "type": "uint256"
        },
        {
          "internalType": "address",
          "name": "creator",
          "type": "address"
        },
        {
          "internalType": "address",
          "name": "creatorAsset",
          "type": "address"
        },
        {
          "internalType": "uint256",
          "name": "creatorAmount",
          "type": "uint256"
        },
        {
          "internalType": "address",
          "name": "askingAsset",
          "type": "address"
        },
        {
          "internalType": "uint256",
          "name": "askingAmount",
          "type": "uint256"
        },
        {
          "internalType": "uint256",
          "name": "askingFilled",
          "type": "uint256"
        },
        {
          "internalType": "uint256",
          "name": "blockNum",
          "type": "uint256"
        },
        {
          "internalType": "bool",
          "name": "active",
          "type": "bool"
        },
        {
          "internalType": "bool",
          "name": "swap",
          "type": "bool"
        }
      ],
      "stateMutability": "view",
      "type": "function"
    },
    {
      "inputs": [],
      "name": "pause",
      "outputs": [],
      "stateMutability": "nonpayable",
      "type": "function"
    },
    {
      "inputs": [],
      "name": "paused",
      "outputs": [
        {
          "internalType": "bool",
          "name": "",
          "type": "bool"
        }
      ],
      "stateMutability": "view",
      "type": "function"
    },
    {
      "inputs": [
        {
          "internalType": "address",
          "name": "asset",
          "type": "address"
        }
      ],
      "name": "registerAsset",
      "outputs": [],
      "stateMutability": "nonpayable",
      "type": "function"
    },
    {
      "inputs": [
        {
          "internalType": "uint256",
          "name": "orderId",
          "type": "uint256"
        }
      ],
      "name": "removeLoopOrderLiquidity",
      "outputs": [],
      "stateMutability": "nonpayable",
      "type": "function"
    },
    {
      "inputs": [
        {
          "internalType": "bytes32",
          "name": "role",
          "type": "bytes32"
        },
        {
          "internalType": "address",
          "name": "account",
          "type": "address"
        }
      ],
      "name": "renounceRole",
      "outputs": [],
      "stateMutability": "nonpayable",
      "type": "function"
    },
    {
      "inputs": [
        {
          "internalType": "bytes32",
          "name": "role",
          "type": "bytes32"
        },
        {
          "internalType": "address",
          "name": "account",
          "type": "address"
        }
      ],
      "name": "revokeRole",
      "outputs": [],
      "stateMutability": "nonpayable",
      "type": "function"
    },
    {
      "inputs": [
        {
          "internalType": "bytes4",
          "name": "interfaceId",
          "type": "bytes4"
        }
      ],
      "name": "supportsInterface",
      "outputs": [
        {
          "internalType": "bool",
          "name": "",
          "type": "bool"
        }
      ],
      "stateMutability": "view",
      "type": "function"
    },
    {
      "inputs": [],
      "name": "symbol",
      "outputs": [
        {
          "internalType": "string",
          "name": "",
          "type": "string"
        }
      ],
      "stateMutability": "view",
      "type": "function"
    },
    {
      "inputs": [],
      "name": "totalSupply",
      "outputs": [
        {
          "internalType": "uint256",
          "name": "",
          "type": "uint256"
        }
      ],
      "stateMutability": "view",
      "type": "function"
    },
    {
      "inputs": [
        {
          "internalType": "address",
          "name": "recipient",
          "type": "address"
        },
        {
          "internalType": "uint256",
          "name": "amount",
          "type": "uint256"
        }
      ],
      "name": "transfer",
      "outputs": [
        {
          "internalType": "bool",
          "name": "",
          "type": "bool"
        }
      ],
      "stateMutability": "nonpayable",
      "type": "function"
    },
    {
      "inputs": [
        {
          "internalType": "address",
          "name": "sender",
          "type": "address"
        },
        {
          "internalType": "address",
          "name": "recipient",
          "type": "address"
        },
        {
          "internalType": "uint256",
          "name": "amount",
          "type": "uint256"
        }
      ],
      "name": "transferFrom",
      "outputs": [
        {
          "internalType": "bool",
          "name": "",
          "type": "bool"
        }
      ],
      "stateMutability": "nonpayable",
      "type": "function"
    },
    {
      "inputs": [],
      "name": "unpause",
      "outputs": [],
      "stateMutability": "nonpayable",
      "type": "function"
    },
    {
      "inputs": [
        {
          "internalType": "uint256",
          "name": "orderId",
          "type": "uint256"
        },
        {
          "internalType": "address",
          "name": "creatorAsset",
          "type": "address"
        },
        {
          "internalType": "uint256",
          "name": "creatorAmount",
          "type": "uint256"
        },
        {
          "internalType": "address",
          "name": "askingAsset",
          "type": "address"
        },
        {
          "internalType": "uint256",
          "name": "askingAmount",
          "type": "uint256"
        }
      ],
      "name": "updateLoopOrderLiquidity",
      "outputs": [],
      "stateMutability": "nonpayable",
      "type": "function"
    },
    {
      "inputs": [],
      "name": "vaultCounter",
      "outputs": [
        {
          "internalType": "uint256",
          "name": "",
          "type": "uint256"
        }
      ],
      "stateMutability": "view",
      "type": "function"
    },
    {
      "inputs": [],
      "name": "version",
      "outputs": [
        {
          "internalType": "string",
          "name": "",
          "type": "string"
        }
      ],
      "stateMutability": "view",
      "type": "function"
    },
    {
      "inputs": [
        {
          "internalType": "address",
          "name": "creatorAsset",
          "type": "address"
        },
        {
          "internalType": "uint256",
          "name": "creatorAmount",
          "type": "uint256"
        }
      ],
      "name": "withdraw",
      "outputs": [],
      "stateMutability": "payable",
      "type": "function"
    },
    {
      "stateMutability": "payable",
      "type": "receive"
    }
  ],
  "bytecode": "0x608060405234801561001057600080fd5b50614c67806100206000396000f3fe60806040526004361061021c5760003560e01c806301ffc9a71461022857806306fdde031461025e578063095ea7b3146102805780630bcd49e4146102a057806318160ddd146102b557806318ff2350146102d757806323b872dd146102f75780632453ffa814610317578063248a9ca31461032c5780632998a7621461034c5780632f2ff15d1461036c578063313ce5671461038c57806336568abe146103ae57806339509351146103ce5780633ccb64ae146103ee5780633f4ba83a1461040e57806347e7ef24146104235780634db18c53146104365780634fbbd49f146104565780635109416b1461046b57806354fd4d501461048b5780635c975abb146104a05780635dc6f2a0146104b557806370a08231146104d557806383da603f146104f55780638456cb591461051557806391d148541461052a57806395d89b411461054a5780639ad8edba1461055f578063a217fddf1461057f578063a457c2d714610594578063a85c38ef146105b4578063a9059cbb146105ea578063ac9580411461060a578063b91816111461061f578063bd3a13f61461063f578063d2a98c4d1461065f578063d312998f1461067f578063d547741f1461069f578063da424ea9146106bf578063dd62ed3e146106ee578063e3cc6b8b1461070e578063e57179e514610721578063e994ae6c1461074f578063eafe7a7414610764578063f3fef3a314610779578063f9b4ac241461078c57610223565b3661022357005b600080fd5b34801561023457600080fd5b50610248610243366004613d61565b6107ac565b6040516102559190613f28565b60405180910390f35b34801561026a57600080fd5b506102736107d9565b6040516102559190613f3c565b34801561028c57600080fd5b5061024861029b366004613be8565b61086b565b6102b36102ae366004613d3f565b610888565b005b3480156102c157600080fd5b506102ca61099b565b6040516102559190613f33565b3480156102e357600080fd5b506102ca6102f2366004613b7b565b6109a1565b34801561030357600080fd5b50610248610312366004613bad565b6109bf565b34801561032357600080fd5b506102ca610a58565b34801561033857600080fd5b506102ca610347366004613d27565b610a5f565b34801561035857600080fd5b50610248610367366004613b61565b610a74565b34801561037857600080fd5b506102b3610387366004613d3f565b610a8a565b34801561039857600080fd5b506103a1610ab3565b6040516102559190614981565b3480156103ba57600080fd5b506102b36103c9366004613d3f565b610ab8565b3480156103da57600080fd5b506102486103e9366004613be8565b610afe565b3480156103fa57600080fd5b506102ca610409366004613b7b565b610b4d565b34801561041a57600080fd5b506102b3610b95565b6102b3610431366004613be8565b610bea565b34801561044257600080fd5b506102b3610451366004613b61565b610f2b565b34801561046257600080fd5b506102ca610faa565b34801561047757600080fd5b506102b3610486366004613d27565b610fb0565b34801561049757600080fd5b50610273610fd8565b3480156104ac57600080fd5b50610248611066565b3480156104c157600080fd5b506102ca6104d0366004613b61565b61106f565b3480156104e157600080fd5b506102ca6104f0366004613b61565b611082565b34801561050157600080fd5b506102ca610510366004613d3f565b61109d565b34801561052157600080fd5b506102b36110f9565b34801561053657600080fd5b50610248610545366004613d3f565b61114d565b34801561055657600080fd5b50610273611178565b34801561056b57600080fd5b506102b361057a366004613c6b565b611187565b34801561058b57600080fd5b506102ca611349565b3480156105a057600080fd5b506102486105af366004613be8565b61134e565b3480156105c057600080fd5b506105d46105cf366004613d27565b6113c9565b6040516102559a999897969594939291906148d9565b3480156105f657600080fd5b50610248610605366004613be8565b61142f565b34801561061657600080fd5b506102ca611443565b34801561062b57600080fd5b5061024861063a366004613b61565b61144a565b34801561064b57600080fd5b506102b361065a366004613d89565b611460565b34801561066b57600080fd5b506102ca61067a366004613b7b565b611559565b34801561068b57600080fd5b506102b361069a366004613b61565b611577565b3480156106ab57600080fd5b506102b36106ba366004613d3f565b61163f565b3480156106cb57600080fd5b506106df6106da366004613d27565b61165e565b60405161025593929190614932565b3480156106fa57600080fd5b506102ca610709366004613b7b565b61168d565b6102ca61071c366004613c11565b6116b8565b34801561072d57600080fd5b5061074161073c366004613d27565b6118d9565b60405161025592919061487a565b34801561075b57600080fd5b506102ca6118fc565b34801561077057600080fd5b506102ca611902565b6102b3610787366004613be8565b611909565b34801561079857600080fd5b506102b36107a7366004613e1b565b611ceb565b60006001600160e01b03198216637965db0b60e01b14806107d157506107d182612186565b90505b919050565b6060603680546107e890614b81565b80601f016020809104026020016040519081016040528092919081815260200182805461081490614b81565b80156108615780601f1061083657610100808354040283529160200191610861565b820191906000526020600020905b81548152906001019060200180831161084457829003601f168201915b5050505050905090565b600061087f61087861219f565b84846121a3565b50600192915050565b600082815261010860209081526040918290208251606081018452815481526001909101546001600160a01b03811692820192909252600160a01b90910460ff161515918101829052906108f75760405162461bcd60e51b81526004016108ee90614786565b60405180910390fd5b602081015160405163099f110160e41b81526001600160a01b038216906399f1101090349061092a908790600401613ed7565b6000604051808303818588803b15801561094357600080fd5b505af1158015610957573d6000803e3d6000fd5b50505050507ff79bc25e1d10059cefa410133cc4b08c3f7f005550d5e156d8534084bd64e88b338560405161098d929190613f0f565b60405180910390a150505050565b60355490565b61010b60209081526000928352604080842090915290825290205481565b60006109cc848484612257565b6001600160a01b0384166000908152603460205260408120816109ed61219f565b6001600160a01b03166001600160a01b0316815260200190815260200160002054905082811015610a305760405162461bcd60e51b81526004016108ee90614514565b610a4b85610a3c61219f565b610a468685614b23565b6121a3565b60019150505b9392505050565b6101105481565b60009081526097602052604090206001015490565b6101096020526000908152604090205460ff1681565b610a9382610a5f565b610aa481610a9f61219f565b61237f565b610aae83836123e3565b505050565b601290565b610ac061219f565b6001600160a01b0316816001600160a01b031614610af05760405162461bcd60e51b81526004016108ee90614800565b610afa828261246a565b5050565b600061087f610b0b61219f565b848460346000610b1961219f565b6001600160a01b03908116825260208083019390935260409182016000908120918b1681529252902054610a4691906149b8565b6001600160a01b03808316600081815261010c602090815260408083209486168084529482528083205493835261010b825280832094835293905291822054610a51916124ef565b610b9d611066565b610bb95760405162461bcd60e51b81526004016108ee906140b6565b610bc460003361114d565b610be05760405162461bcd60e51b81526004016108ee90613f6f565b610be86124fb565b565b610bf2611066565b15610c0f5760405162461bcd60e51b81526004016108ee906143bc565b6001600160a01b038216600090815261010d602052604090205460ff16610c485760405162461bcd60e51b81526004016108ee9061413c565b60ff5460009081906001600160a01b0385811691161415610cdf57348314610c825760405162461bcd60e51b81526004016108ee90614014565b60ff546001600160a01b0316600090815261010b60209081526040808320338452909152902054610cb39034612569565b60ff546001600160a01b0316600090815261010b60209081526040808320338452909152902055610efa565b6040516370a0823160e01b815284906001600160a01b038216906370a0823190610d0d903090600401613ed7565b60206040518083038186803b158015610d2557600080fd5b505afa158015610d39573d6000803e3d6000fd5b505050506040513d601f19601f82011682018060405250810190610d5d9190613e03565b6040516323b872dd60e01b81529093506001600160a01b038216906323b872dd90610d9090339030908990600401613eeb565b602060405180830381600087803b158015610daa57600080fd5b505af1158015610dbe573d6000803e3d6000fd5b505050506040513d601f19601f82011682018060405250810190610de29190613d0b565b610dfe5760405162461bcd60e51b81526004016108ee90614475565b6040516370a0823160e01b81526001600160a01b038216906370a0823190610e2a903090600401613ed7565b60206040518083038186803b158015610e4257600080fd5b505afa158015610e56573d6000803e3d6000fd5b505050506040513d601f19601f82011682018060405250810190610e7a9190613e03565b915083610e8783856124ef565b14610ea45760405162461bcd60e51b81526004016108ee9061407f565b6001600160a01b038116600090815261010b60209081526040808320338452909152902054610ed39085612569565b6001600160a01b03909116600090815261010b602090815260408083203384529091529020555b7fe1fffcc4923d04b559f4d29a8bfc6cda04eb5b0d3c460751c2402c5c5cc9109c848460405161098d929190613f0f565b610f3660003361114d565b610f525760405162461bcd60e51b81526004016108ee90614162565b61010754610f61906001612569565b610107819055600081815261010860205260409020908155600101805460ff60a01b196001600160a01b039093166001600160a01b03199091161791909116600160a01b179055565b60fd5481565b610fb8611066565b15610fd55760405162461bcd60e51b81526004016108ee906143bc565b50565b60fe8054610fe590614b81565b80601f016020809104026020016040519081016040528092919081815260200182805461101190614b81565b801561105e5780601f106110335761010080835404028352916020019161105e565b820191906000526020600020905b81548152906001019060200180831161104157829003601f168201915b505050505081565b60c95460ff1690565b61010a6020526000908152604090205481565b6001600160a01b031660009081526033602052604090205490565b6001600160a01b03811660009081526101096020526040812054819060ff16156110d65760fc546110cf906002612575565b90506110db565b5060fc545b6110f1816110eb86612710612575565b90612581565b949350505050565b611101611066565b1561111e5760405162461bcd60e51b81526004016108ee906143bc565b61112960003361114d565b6111455760405162461bcd60e51b81526004016108ee9061469d565b610be861258d565b60009182526097602090815260408084206001600160a01b0393909316845291905290205460ff1690565b6060603780546107e890614b81565b61118f611066565b156111ac5760405162461bcd60e51b81526004016108ee906143bc565b6101105485111580156111bf5750600085115b6111db5760405162461bcd60e51b81526004016108ee9061435f565b600087511180156111ec5750848751145b6112085760405162461bcd60e51b81526004016108ee9061435f565b811561133557600083815261010860209081526040918290208251606081018452815481526001909101546001600160a01b03811692820192909252600160a01b90910460ff161515918101829052906112745760405162461bcd60e51b81526004016108ee9061426b565b6020810151604051631196a36960e11b81526001600160a01b0382169063232d46d2906112a7908790879060040161487a565b602060405180830381600087803b1580156112c157600080fd5b505af11580156112d5573d6000803e3d6000fd5b505050506040513d601f19601f820116820180604052508101906112f99190613e03565b505050610103839055610102805460ff1916600117905561010582905561010480546001600160a01b0383166001600160a01b03199091161790555b6113408787866125e8565b50505050505050565b600081565b6000806034600061135d61219f565b6001600160a01b03908116825260208083019390935260409182016000908120918816815292529020549050828110156113a95760405162461bcd60e51b81526004016108ee906147bb565b6113bf6113b461219f565b85610a468685614b23565b5060019392505050565b6101116020526000908152604090208054600182015460028301546003840154600485015460058601546006870154600788015460089098015496976001600160a01b039687169795871696949594909316939192909160ff808216916101009004168a565b600061087f61143c61219f565b8484612257565b6101075481565b61010d6020526000908152604090205460ff1681565b600054610100900460ff1680611479575060005460ff16155b6114955760405162461bcd60e51b81526004016108ee90614427565b600054610100900460ff161580156114c0576000805460ff1961ff0019909116610100171660011790555b6114c8612a7e565b6114d0612b02565b6114da8585612b7a565b6114e5600083612c02565b60fb80546001600160a01b0319166001600160a01b038416179055604080518082019091526003808252620312e360ec1b602090920191825261152a9160fe916139c6565b5060fc83905560ff80546001600160a01b03191690558015611552576000805461ff00191690555b5050505050565b61010c60209081526000928352604080842090915290825290205481565b61158260003361114d565b61159e5760405162461bcd60e51b81526004016108ee906141d5565b6001600160a01b038116600090815261010d602052604090205460ff16156115d85760405162461bcd60e51b81526004016108ee9061455c565b6001600160a01b038116600081815261010d60209081526040808320805460ff1916600190811790915561010f805480865261010e9094529190932091825581830180546001600160a01b031916909417909355915461163791612569565b61010f555050565b61164882610a5f565b61165481610a9f61219f565b610aae838361246a565b61010860205260009081526040902080546001909101546001600160a01b03811690600160a01b900460ff1683565b6001600160a01b03918216600090815260346020908152604080832093909416825291909152205490565b60006116c2611066565b156116df5760405162461bcd60e51b81526004016108ee906143bc565b6001600160a01b038616600090815261010d602052604090205460ff166117185760405162461bcd60e51b81526004016108ee906146c8565b836001600160a01b0316866001600160a01b0316141561174a5760405162461bcd60e51b81526004016108ee9061404a565b60008511801561175a5750600083115b6117765760405162461bcd60e51b81526004016108ee906145cd565b85856117828233610b4d565b10156117a05760405162461bcd60e51b81526004016108ee9061431a565b6001600160a01b038116600090815261010c602090815260408083203384529091529020546117cf9087612569565b6001600160a01b03828116600090815261010c60209081526040808320338085529083528184209590955561011080548085526101119093529220908155600180820180546001600160a01b0319908116909617905560028201805486168d8616179055600382018b9055600482018054909516938a16939093179093556005830187905543600784015560088301805460ff1916831761ff001916610100881515021790555461187f91612569565b6101108190556040517f1632dfc21c182291e800ef1db98cdb5b69d153feca622c402a0f6574bd95d357916118c19133908c908c908c908c9043908d90614891565b60405180910390a15050610110549695505050505050565b61010e60205260009081526040902080546001909101546001600160a01b031682565b60fc5481565b61010f5481565b611911611066565b1561192e5760405162461bcd60e51b81526004016108ee906143bc565b6001600160a01b038216600090815261010d602052604090205460ff166119675760405162461bcd60e51b81526004016108ee906144de565b806119728333610b4d565b10156119905760405162461bcd60e51b81526004016108ee906144a7565b60ff5460009081906001600160a01b0385811691161415611a3c5760ff546001600160a01b0316600090815261010b602090815260408083203384529091529020544792506119df90846124ef565b60ff546001600160a01b0316600090815261010b6020908152604080832033808552925280832093909355915185156108fc0291869190818181858888f19350505050158015611a33573d6000803e3d6000fd5b50479050611c92565b6040516370a0823160e01b815284906001600160a01b038216906370a0823190611a6a903090600401613ed7565b60206040518083038186803b158015611a8257600080fd5b505afa158015611a96573d6000803e3d6000fd5b505050506040513d601f19601f82011682018060405250810190611aba9190613e03565b6001600160a01b038216600081815261010c60209081526040808320338085529083528184205494845261010b83528184209084529091529020549194508591611b03916124ef565b1015611b215760405162461bcd60e51b81526004016108ee906143e6565b60405163a9059cbb60e01b81526001600160a01b0382169063a9059cbb90611b4f9033908890600401613f0f565b602060405180830381600087803b158015611b6957600080fd5b505af1158015611b7d573d6000803e3d6000fd5b505050506040513d601f19601f82011682018060405250810190611ba19190613d0b565b611bbd5760405162461bcd60e51b81526004016108ee90614208565b6040516370a0823160e01b81526001600160a01b038216906370a0823190611be9903090600401613ed7565b60206040518083038186803b158015611c0157600080fd5b505afa158015611c15573d6000803e3d6000fd5b505050506040513d601f19601f82011682018060405250810190611c399190613e03565b6001600160a01b038216600090815261010b60209081526040808320338452909152902054909250611c6b90856124ef565b6001600160a01b03909116600090815261010b602090815260408083203384529091529020555b82611c9d83836124ef565b14611cba5760405162461bcd60e51b81526004016108ee906144a7565b7f884edad9ce6fa2440d8a54cc123490eb96d2768479d49ff9c7366125a9424364848460405161098d929190613f0f565b611cf3611066565b15611d105760405162461bcd60e51b81526004016108ee906143bc565b6001600160a01b038416600090815261010d602052604090205460ff16611d495760405162461bcd60e51b81526004016108ee9061413c565b61011054851015611d6c5760405162461bcd60e51b81526004016108ee90614392565b60008581526101116020526040902060018101546001600160a01b03163314611da75760405162461bcd60e51b81526004016108ee9061484f565b6008810154610100900460ff16158015611dc45750600681015415155b611de05760405162461bcd60e51b81526004016108ee906140e4565b60028101546001600160a01b0386811691161415612011578381600301541415611e7f5760048101546001600160a01b03848116911614611e39576004810180546001600160a01b0319166001600160a01b0385161790555b81816005015414611e4c57600581018290555b600080516020614c128339815191528686868686604051611e71959493929190614953565b60405180910390a150611552565b8381600301541115611f3a5760028101548490611ea5906001600160a01b031633610b4d565b1015611ec35760405162461bcd60e51b81526004016108ee9061423f565b611f0c611edd8260030154866124ef90919063ffffffff16565b60028301546001600160a01b0316600090815261010c6020908152604080832033845290915290205490612569565b60028201546001600160a01b0316600090815261010c60209081526040808320338452909152902055611fa6565b6003810154611f7c90611f4d90866124ef565b60028301546001600160a01b0316600090815261010c60209081526040808320338452909152902054906124ef565b60028201546001600160a01b0316600090815261010c602090815260408083203384529091529020555b60048101546001600160a01b03848116911614611e39576004810180546001600160a01b0319166001600160a01b03851617905560058101548214611e4c5760058101829055600080516020614c128339815191528686868686604051611e71959493929190614953565b600381015460028201546001600160a01b0316600090815261010c60209081526040808320338452909152902054101561205d5760405162461bcd60e51b81526004016108ee90614738565b600381015460028201546001600160a01b0316600090815261010c60209081526040808320338452909152902054612094916124ef565b60028201546001600160a01b0316600090815261010c602090815260408083203380855292529091209190915584906120ce908790610b4d565b10156120ec5760405162461bcd60e51b81526004016108ee90614603565b6002810180546001600160a01b0319166001600160a01b03871617905560038101548414611fa6576003810184905560048101546001600160a01b03848116911614611e39576004810180546001600160a01b0319166001600160a01b03851617905560058101548214611e4c5760058101829055600080516020614c128339815191528686868686604051611e71959493929190614953565b6001600160e01b031981166301ffc9a760e01b14919050565b3390565b6001600160a01b0383166121c95760405162461bcd60e51b81526004016108ee90614659565b6001600160a01b0382166121ef5760405162461bcd60e51b81526004016108ee90614193565b6001600160a01b0380841660008181526034602090815260408083209487168084529490915290819020849055517f8c5be1e5ebec7d5bd14f71427d1e84f3dd0314c0f7b2291e5b200ac8c7c3b9259061224a908590613f33565b60405180910390a3505050565b6001600160a01b03831661227d5760405162461bcd60e51b81526004016108ee90614588565b6001600160a01b0382166122a35760405162461bcd60e51b81526004016108ee90613fd1565b6122ae838383610aae565b6001600160a01b038316600090815260336020526040902054818110156122e75760405162461bcd60e51b81526004016108ee90614293565b6122f18282614b23565b6001600160a01b0380861660009081526033602052604080822093909355908516815290812080548492906123279084906149b8565b92505081905550826001600160a01b0316846001600160a01b03167fddf252ad1be2c89b69c2b068fc378daa952ba7f163c4a11628f55a4df523b3ef846040516123719190613f33565b60405180910390a350505050565b612389828261114d565b610afa576123a1816001600160a01b03166014612c0c565b6123ac836020612c0c565b6040516020016123bd929190613e68565b60408051601f198184030181529082905262461bcd60e51b82526108ee91600401613f3c565b6123ed828261114d565b610afa5760008281526097602090815260408083206001600160a01b03851684529091529020805460ff1916600117905561242661219f565b6001600160a01b0316816001600160a01b0316837f2f8788117e7eff1d82e926ec794901d17c78024a50270940304540a733656f0d60405160405180910390a45050565b612474828261114d565b15610afa5760008281526097602090815260408083206001600160a01b03851684529091529020805460ff191690556124ab61219f565b6001600160a01b0316816001600160a01b0316837ff6391f5c32d9c69d2a47ea670b442974b53935d1edc7fd64eb21e047a839171b60405160405180910390a45050565b6000610a518284614b23565b612503611066565b61251f5760405162461bcd60e51b81526004016108ee906140b6565b60c9805460ff191690557f5db9ee0a495bf2e6ff9c91a7834c1ba4fdd244a5e8aa4e537bd38aeae4b073aa61255261219f565b60405161255f9190613ed7565b60405180910390a1565b6000610a5182846149b8565b6000610a5182846149d0565b6000610a518284614b04565b612595611066565b156125b25760405162461bcd60e51b81526004016108ee906143bc565b60c9805460ff191660011790557f62e78cea01bee320cd4e420270b5ea74000d11b0c9f74754ebdbfc544b05a25861255261219f565b6000805b8451811015612833576000610111600087848151811061261c57634e487b7160e01b600052603260045260246000fd5b60209081029190910181015182528181019290925260409081016000208151610140810183528154815260018201546001600160a01b039081169482019490945260028201548416928101929092526003810154606083015260048101549092166080820152600582015460a0820152600682015460c0820152600782015460e082015260089091015460ff80821615156101008085018290529092041615156101208301529091506126f857836126e65760405162461bcd60e51b81526004016108ee9061470b565b6126f1826001612569565b9150612820565b84828151811061271857634e487b7160e01b600052603260045260246000fd5b602002602001015161273b8260c001518360a001516124ef90919063ffffffff16565b141561276d5760c0810151156127615760c081015160a082015161275e916124ef565b92505b8060a0015192506127e1565b84828151811061278d57634e487b7160e01b600052603260045260246000fd5b60200260200101516127b08260c001518360a001516124ef90919063ffffffff16565b11156127e1578482815181106127d657634e487b7160e01b600052603260045260246000fd5b602002602001015192505b61281286838151811061280457634e487b7160e01b600052603260045260246000fd5b602002602001015184612dbd565b61281d6001836149b8565b91505b508061282b81614bbc565b9150506125ec565b6101025460ff1615612a3e576101045461010354600090815261010860209081526040918290208251606081018452815481526001909101546001600160a01b0380821693830193909352600160a01b900460ff161515928101839052921691906128b05760405162461bcd60e51b81526004016108ee9061426b565b6020810151610102805460ff1916905561010554604051630bf4146d60e31b81526001600160a01b038086169263095ea7b3928592831691635fa0a368916128fd9190339060040161487a565b60206040518083038186803b15801561291557600080fd5b505afa158015612929573d6000803e3d6000fd5b505050506040513d601f19601f8201168201806040525081019061294d9190613e03565b6040518363ffffffff1660e01b815260040161296a929190613f0f565b602060405180830381600087803b15801561298457600080fd5b505af1158015612998573d6000803e3d6000fd5b505050506040513d601f19601f820116820180604052508101906129bc9190613d0b565b50806001600160a01b0316635f8850fb6040518163ffffffff1660e01b8152600401602060405180830381600087803b1580156129f857600080fd5b505af1158015612a0c573d6000803e3d6000fd5b505050506040513d601f19601f82011682018060405250810190612a309190613e03565b15612a3a57600080fd5b5050505b7fd3c542dd6eca3e8242206476555658d80f4543b6120cd6999cf592ed2f7777b23382604051612a6f929190613f0f565b60405180910390a15050505050565b600054610100900460ff1680612a97575060005460ff16155b612ab35760405162461bcd60e51b81526004016108ee90614427565b600054610100900460ff16158015612ade576000805460ff1961ff0019909116610100171660011790555b612ae66137e8565b612aee61385b565b8015610fd5576000805461ff001916905550565b600054610100900460ff1680612b1b575060005460ff16155b612b375760405162461bcd60e51b81526004016108ee90614427565b600054610100900460ff16158015612b62576000805460ff1961ff0019909116610100171660011790555b612b6a6137e8565b612b726137e8565b612aee6137e8565b600054610100900460ff1680612b93575060005460ff16155b612baf5760405162461bcd60e51b81526004016108ee90614427565b600054610100900460ff16158015612bda576000805460ff1961ff0019909116610100171660011790555b612be26137e8565b612bec83836138d9565b8015610aae576000805461ff0019169055505050565b610afa82826123e3565b60606000612c1b836002614b04565b612c269060026149b8565b6001600160401b03811115612c4b57634e487b7160e01b600052604160045260246000fd5b6040519080825280601f01601f191660200182016040528015612c75576020820181803683370190505b509050600360fc1b81600081518110612c9e57634e487b7160e01b600052603260045260246000fd5b60200101906001600160f81b031916908160001a905350600f60fb1b81600181518110612cdb57634e487b7160e01b600052603260045260246000fd5b60200101906001600160f81b031916908160001a9053506000612cff846002614b04565b612d0a9060016149b8565b90505b6001811115612d9e576f181899199a1a9b1b9c1cb0b131b232b360811b85600f1660108110612d4c57634e487b7160e01b600052603260045260246000fd5b1a60f81b828281518110612d7057634e487b7160e01b600052603260045260246000fd5b60200101906001600160f81b031916908160001a90535060049490941c93612d9781614b6a565b9050612d0d565b508315610a515760405162461bcd60e51b81526004016108ee90613f9c565b60008281526101116020908152604080832060048101546001600160a01b031680855261010c8452828520338087529085528386205491865261010b85528386209086529093529220548391612e1391906124ef565b1015612e315760405162461bcd60e51b81526004016108ee906142d9565b81612e4d826006015483600501546124ef90919063ffffffff16565b141561341c576008810154610100900460ff166130c6576001810154612ec390612e8c90612e859085906001600160a01b031661109d565b84906124ef565b60048301546001600160a01b03908116600090815261010b6020908152604080832060018801549094168352929052205490612569565b60048201546001600160a01b03908116600090815261010b60209081526040808320600187018054861685529252909120929092559054612f2e91612f0a9185911661109d565b60048301546001600160a01b0316600090815261010a602052604090205490612569565b60048201546001600160a01b03908116600090815261010a6020908152604080832094909455600385015460028601548416835261010c8252848320600187015490941683529290529190912054612f85916124ef565b60028201546001600160a01b03908116600090815261010c6020908152604080832060018701548516845282528083209490945560058501546004860154909316825261010b815283822033835290529190912054612fe3916124ef565b60048201546001600160a01b0316600090815261010b6020908152604080832033808552925290912091909155600382015461306091613031916130269161109d565b6003840154906124ef565b60028301546001600160a01b0316600090815261010b6020908152604080832033845290915290205490612569565b60028201546001600160a01b03908116600090815261010b6020908152604080832033845290915290209190915560018201546130a391612f0a9185911661109d565b60048201546001600160a01b0316600090815261010a6020526040902055613417565b60048101546002820154600583015460038401546001600160a01b03938416600081815261010c6020908152604080832060018a0154891684529091529020549094909316926131169087612569565b6004860180546001600160a01b03908116600090815261010c6020908152604080832060018c018054861685529083528184209690965593548316825261010b8152838220945490921681529290529020546131729087612569565b60048601546001600160a01b03908116600090815261010b6020908152604080832060018b015490941683529290522055600685015460038601546131f2916131bb91906124ef565b60028701546001600160a01b03908116600090815261010c6020908152604080832060018c015490941683529290522054906124ef565b60028601546001600160a01b03908116600090815261010c6020908152604080832060018b015490941683529290522055600385015461328a906132539061323a903361109d565b6006880154600389015461324d916124ef565b906124ef565b60028701546001600160a01b03908116600090815261010b6020908152604080832060018c015490941683529290522054906124ef565b60028601546001600160a01b03908116600090815261010b6020818152604080842060018c01548616855282528084209590955560058a015460048b01549094168352908152838220338352905291909120546132e6916124ef565b60048601546001600160a01b0316600090815261010b60209081526040808320338085529252909120919091556003860154613358916133299161323a9161109d565b60028701546001600160a01b0316600090815261010b6020908152604080832033845290915290205490612569565b60028601546001600160a01b0316600090815261010b602090815260408083203380855292529091209190915560038601546133bc91613398919061109d565b60028701546001600160a01b0316600090815261010a602052604090205490612569565b6002860180546001600160a01b03908116600090815261010a602052604090209290925580549582166001600160a01b0319968716179055600486018054949091169390941692909217909255600383019190915560058201555b610aae565b81613438826006015483600501546124ef90919063ffffffff16565b1115610aae5760006134668361345f846006015485600501546124ef90919063ffffffff16565b6012613977565b9050600061348183600301548361258190919063ffffffff16565b60048401546001600160a01b0316600090815261010b602090815260408083203384529091529020549091506134b790856124ef565b60048401546001600160a01b0316600090815261010b602090815260408083203380855292529091209190915561352d906134fe906134f790849061109d565b83906124ef565b60028501546001600160a01b0316600090815261010b6020908152604080832033845290915290205490612569565b60028401546001600160a01b03908116600090815261010b60208181526040808420338552825280842095909555600488015484168352908152838220600188015490931682529190915220546135849085612569565b60048401546001600160a01b03908116600090815261010b60209081526040808320600189018054861685529083528184209590955560028801548416835261010c825280832094549093168252929092529020546135e390826124ef565b60028401546001600160a01b03908116600090815261010c6020908152604080832060018901549094168352929052205560068301546136239085612569565b60068401556008830154610100900460ff16156137165761368161364a6134f7833361109d565b60028501546001600160a01b03908116600090815261010b6020908152604080832060018a015490941683529290522054906124ef565b60028401546001600160a01b03908116600090815261010b60209081526040808320600189018054861685529083528184209590955560048801548416835261010c825280832094549093168252929092529020546136e09085612569565b60048401546001600160a01b03908116600090815261010c60209081526040808320600189015490941683529290522055611552565b60028301546001600160a01b03908116600090815261010b6020908152604080832060018801549094168352929052205461375190826124ef565b60028401546001600160a01b03908116600090815261010b60209081526040808320600189018054861685529083528184209590955560048801548416835261010c825280832094549093168252929092529020546137b09085612569565b60048401546001600160a01b03908116600090815261010c602090815260408083206001890154909416835292905220555050505050565b600054610100900460ff1680613801575060005460ff16155b61381d5760405162461bcd60e51b81526004016108ee90614427565b600054610100900460ff16158015612aee576000805460ff1961ff0019909116610100171660011790558015610fd5576000805461ff001916905550565b600054610100900460ff1680613874575060005460ff16155b6138905760405162461bcd60e51b81526004016108ee90614427565b600054610100900460ff161580156138bb576000805460ff1961ff0019909116610100171660011790555b60c9805460ff191690558015610fd5576000805461ff001916905550565b600054610100900460ff16806138f2575060005460ff16155b61390e5760405162461bcd60e51b81526004016108ee90614427565b600054610100900460ff16158015613939576000805460ff1961ff0019909116610100171660011790555b825161394c9060369060208601906139c6565b5081516139609060379060208501906139c6565b508015610aae576000805461ff0019169055505050565b6000806139858360016149b8565b61399090600a614a36565b61399a9086614b04565b9050600a6139a885836149d0565b6139b39060056149b8565b6139bd91906149d0565b95945050505050565b8280546139d290614b81565b90600052602060002090601f0160209004810192826139f45760008555613a3a565b82601f10613a0d57805160ff1916838001178555613a3a565b82800160010185558215613a3a579182015b82811115613a3a578251825591602001919060010190613a1f565b50613a46929150613a4a565b5090565b5b80821115613a465760008155600101613a4b565b80356001600160a01b03811681146107d457600080fd5b600082601f830112613a86578081fd5b813560206001600160401b03821115613aa157613aa1614bed565b808202613aaf82820161498f565b838152828101908684018388018501891015613ac9578687fd5b8693505b85841015613aeb578035835260019390930192918401918401613acd565b50979650505050505050565b600082601f830112613b07578081fd5b81356001600160401b03811115613b2057613b20614bed565b613b33601f8201601f191660200161498f565b818152846020838601011115613b47578283fd5b816020850160208301379081016020019190915292915050565b600060208284031215613b72578081fd5b610a5182613a5f565b60008060408385031215613b8d578081fd5b613b9683613a5f565b9150613ba460208401613a5f565b90509250929050565b600080600060608486031215613bc1578081fd5b613bca84613a5f565b9250613bd860208501613a5f565b9150604084013590509250925092565b60008060408385031215613bfa578182fd5b613c0383613a5f565b946020939093013593505050565b600080600080600060a08688031215613c28578081fd5b613c3186613a5f565b945060208601359350613c4660408701613a5f565b9250606086013591506080860135613c5d81614c03565b809150509295509295909350565b600080600080600080600060e0888a031215613c85578182fd5b87356001600160401b0380821115613c9b578384fd5b613ca78b838c01613a76565b985060208a0135915080821115613cbc578384fd5b50613cc98a828b01613a76565b965050604088013594506060880135613ce181614c03565b93506080880135925060a08801359150613cfd60c08901613a5f565b905092959891949750929550565b600060208284031215613d1c578081fd5b8151610a5181614c03565b600060208284031215613d38578081fd5b5035919050565b60008060408385031215613d51578182fd5b82359150613ba460208401613a5f565b600060208284031215613d72578081fd5b81356001600160e01b031981168114610a51578182fd5b60008060008060808587031215613d9e578081fd5b84356001600160401b0380821115613db4578283fd5b613dc088838901613af7565b95506020870135915080821115613dd5578283fd5b50613de287828801613af7565b93505060408501359150613df860608601613a5f565b905092959194509250565b600060208284031215613e14578081fd5b5051919050565b600080600080600060a08688031215613e32578283fd5b85359450613e4260208701613a5f565b935060408601359250613e5760608701613a5f565b949793965091946080013592915050565b600076020b1b1b2b9b9a1b7b73a3937b61d1030b1b1b7bab73a1604d1b82528351613e9a816017850160208801614b3a565b7001034b99036b4b9b9b4b733903937b6329607d1b6017918401918201528351613ecb816028840160208801614b3a565b01602801949350505050565b6001600160a01b0391909116815260200190565b6001600160a01b039384168152919092166020820152604081019190915260600190565b6001600160a01b03929092168252602082015260400190565b901515815260200190565b90815260200190565b6000602082528251806020840152613f5b816040850160208701614b3a565b601f01601f19169190910160400192915050565b602080825260139082015272756e70617573653a2061646d696e206f6e6c7960681b604082015260600190565b6020808252818101527f537472696e67733a20686578206c656e67746820696e73756666696369656e74604082015260600190565b60208082526023908201527f45524332303a207472616e7366657220746f20746865207a65726f206164647260408201526265737360e81b606082015260800190565b6020808252601c908201527b0c8cae0dee6d2e87440cadce6eae4ca40f2deea40e6cadce840cae8d60231b604082015260600190565b6020808252601b908201527a18dc99585d19531bdbdc13dc99195c8e881cd85b5948185cdcd95d602a1b604082015260600190565b6020808252601f908201527f6465706f7369743a20656e7375726520796f752073656e7420656e6f75676800604082015260600190565b60208082526014908201527314185d5cd8589b194e881b9bdd081c185d5cd95960621b604082015260600190565b60208082526038908201527f7570646174654c6f6f704f726465724c69717569646974793a207061727469616040820152776c2073776170206973206e6f742075706461746561626c6560401b606082015260800190565b6020808252600c908201526b155b985d5d1a1bdc9a5e995960a21b604082015260600190565b6020808252601790820152766164644e46545661756c743a2061646d696e206f6e6c7960481b604082015260600190565b60208082526022908201527f45524332303a20617070726f766520746f20746865207a65726f206164647265604082015261737360f01b606082015260800190565b602080825260199082015278726567697374657241737365743a2061646d696e206f6e6c7960381b604082015260600190565b6020808252601f908201527f77697468647261773a206173736574207472616e73666572206661696c656400604082015260600190565b602080825260129082015271417661696c61626c652042616c616e63653f60701b604082015260600190565b6020808252600e908201526d5661756c7420496e61637469766560901b604082015260600190565b60208082526026908201527f45524332303a207472616e7366657220616d6f756e7420657863656564732062604082015265616c616e636560d01b606082015260800190565b60208082526021908201527f5f6c6f6f7054726164653a2066756e64732061726520756e617661696c61626c6040820152606560f81b606082015260800190565b60208082526025908201527f6372656174654c6f6f704f726465723a20696e73756666696369656e742062616040820152646c616e636560d81b606082015260800190565b6020808252601990820152781b1bdbdc0e881a5b9d985b1a59081bdc99195c8818dbdd5b9d603a1b604082015260600190565b60208082526010908201526f24b732bc34b9ba30b73a1037b93232b960811b604082015260600190565b60208082526010908201526f14185d5cd8589b194e881c185d5cd95960821b604082015260600190565b60208082526021908201527f77697468647261773a20617373657473207469656420746f20616e206f7264656040820152603960f91b606082015260800190565b6020808252602e908201527f496e697469616c697a61626c653a20636f6e747261637420697320616c72656160408201526d191e481a5b9a5d1a585b1a5e995960921b606082015260800190565b60208082526018908201527719195c1bdcda5d0e881d1c985b9cd9995c8819985a5b195960421b604082015260600190565b6020808252601e908201527f77697468647261773a20696e73756666696369656e742062616c616e63650000604082015260600190565b6020808252601c908201527b1dda5d1a191c985dce881d5b985d5d1a1bdc9a5e995908185cdcd95d60221b604082015260600190565b60208082526028908201527f45524332303a207472616e7366657220616d6f756e74206578636565647320616040820152676c6c6f77616e636560c01b606082015260800190565b602080825260129082015271105b1c9958591e481c9959dcda5d195c995960721b604082015260600190565b60208082526025908201527f45524332303a207472616e736665722066726f6d20746865207a65726f206164604082015264647265737360d81b606082015260800190565b6020808252601c908201527b18dc99585d19531bdbdc13dc99195c8e881e995c9bc8185b5bdd5b9d60221b604082015260600190565b60208082526036908201527f7570646174654c6f6f704f726465724c69717569646974793a206e6f7420656e6040820152756f75676820617661696c61626c652062616c616e636560501b606082015260800190565b60208082526024908201527f45524332303a20617070726f76652066726f6d20746865207a65726f206164646040820152637265737360e01b606082015260800190565b60208082526011908201527070617573653a2061646d696e206f6e6c7960781b604082015260600190565b60208082526023908201527f6372656174654c6f6f704f726465723a20756e617574686f72697a65642061736040820152621cd95d60ea1b606082015260800190565b602080825260139082015272556e736b697061626c6520496e61637469766560681b604082015260600190565b6020808252602e908201527f7570646174654c6f6f704f726465724c69717569646974793a20696e7375666660408201526d696369656e742062616c616e636560901b606082015260800190565b6020808252601b908201527a189d5e55985d5b1d13999d0e881a5b9858dd1a5d99481d985d5b1d602a1b604082015260600190565b60208082526025908201527f45524332303a2064656372656173656420616c6c6f77616e63652062656c6f77604082015264207a65726f60d81b606082015260800190565b6020808252602f908201527f416363657373436f6e74726f6c3a2063616e206f6e6c792072656e6f756e636560408201526e103937b632b9903337b91039b2b63360891b606082015260800190565b6020808252601190820152702737ba1037b93232b91031b932b0ba37b960791b604082015260600190565b9182526001600160a01b0316602082015260400190565b9788526001600160a01b039687166020890152948616604088015260608701939093529316608085015260a084019290925260c0830191909152151560e08201526101000190565b998a526001600160a01b0398891660208b015296881660408a0152606089019590955292909516608087015260a086015260c085019390935260e084019290925290151561010083015215156101208201526101400190565b9283526001600160a01b039190911660208301521515604082015260600190565b9485526001600160a01b03938416602086015260408501929092529091166060830152608082015260a00190565b60ff91909116815260200190565b6040518181016001600160401b03811182821017156149b0576149b0614bed565b604052919050565b600082198211156149cb576149cb614bd7565b500190565b6000826149eb57634e487b7160e01b81526012600452602481fd5b500490565b80825b6001808611614a025750614a2d565b818704821115614a1457614a14614bd7565b80861615614a2157918102915b9490941c9380026149f3565b94509492505050565b6000610a516000198484600082614a4f57506001610a51565b81614a5c57506000610a51565b8160018114614a725760028114614a7c57614aa9565b6001915050610a51565b60ff841115614a8d57614a8d614bd7565b6001841b915084821115614aa357614aa3614bd7565b50610a51565b5060208310610133831016604e8410600b8410161715614adc575081810a83811115614ad757614ad7614bd7565b610a51565b614ae984848460016149f0565b808604821115614afb57614afb614bd7565b02949350505050565b6000816000190483118215151615614b1e57614b1e614bd7565b500290565b600082821015614b3557614b35614bd7565b500390565b60005b83811015614b55578181015183820152602001614b3d565b83811115614b64576000848401525b50505050565b600081614b7957614b79614bd7565b506000190190565b600281046001821680614b9557607f821691505b60208210811415614bb657634e487b7160e01b600052602260045260246000fd5b50919050565b6000600019821415614bd057614bd0614bd7565b5060010190565b634e487b7160e01b600052601160045260246000fd5b634e487b7160e01b600052604160045260246000fd5b8015158114610fd557600080fdfe6493436eb3a8f82ed5da010fc4ff64f7df56c2ff40133306a99ee75e303c2544a2646970667358221220e32584872d0f6b83c185e0dddc4fea03d37cfa96b4c16b5225eee6c9f6e3225264736f6c63430008000033",
  "linkReferences": {},
  "deployedLinkReferences": {}
}